:100000000C942A000C943F000C943F000C943F0089
:100010000C943F000C943F000C943F000C943F0064
:100020000C943F000C943F000C943F000C943F0054
:100030000C943F000C943F000C943F000C943F0044
:100040000C943F000C943F000C943F000C943F0034
:100050000C943F0011241FBECFE5D8E0DEBFCDBF1A
:1000600010E0A0E6B0E0E6EFF5E202C005900D92E8
:10007000AC38B107D9F70E9477120C94F9120C949E
:100080000000EF92FF920F931F937B018C0120E001
:1000900030E040E05FE40E94410388238CF0C80117
:1000A000B70120E030E040E05FE40E94B9010E9427
:1000B000A1039B01AC01205030404040504806C095
:1000C000C801B7010E94A1039B01AC01B901CA019B
:1000D0001F910F91FF90EF900895A0E0B0E0E3E74B
:1000E000F0E00C94C212DC012B01FA019C919230D9
:1000F00008F439C1EB018881823008F433C19430AF
:1001000069F4843009F02FC111969C91119789816F
:10011000981709F428C1A0E6B0E025C1843009F49D
:1001200021C18230A9F4923009F01DC19A01AD01BC
:1001300088E0EA010990AE01E90109929E0181502F
:10014000C1F7E201898111969C918923818308C1BD
:10015000923009F407C112962D903C901397EB0151
:100160008A819B811496AD90BD90CD90DC901797BD
:10017000EC80FD800E811F819101281B390BB90194
:1001800037FF04C066277727621B730B6032710547
:100190000CF061C0121613066CF537014801062EEB
:1001A00004C096948794779467940A94D2F721E0D8
:1001B00030E040E050E004C0220F331F441F551FC1
:1001C0006A95D2F721503040404050402E213F21C7
:1001D00040235123211531054105510521F021E02E
:1001E00030E040E050E079018A01E628F72808294C
:1001F00019293CC0232BD1F1260E371E35014601AB
:10020000062E04C096948794779467940A94D2F744
:1002100021E030E040E050E004C0220F331F441FD3
:10022000551F6A95D2F721503040404050402A2156
:100230003B214C215D21211531054105510521F05E
:1002400021E030E040E050E059016A01A628B728DB
:10025000C828D9280BC0821593052CF01C01AA24AC
:10026000BB24650103C0EE24FF24870111969C91F5
:10027000D20111968C91981709F445C0992339F051
:10028000A80197012A193B094C095D0906C0A6017E
:1002900095012E193F09400B510B57FD08C01182E3
:1002A0003382228224833583468357831DC081E0B5
:1002B00081833382228288279927DC01821B930B5A
:1002C000A40BB50B84839583A683B7830DC0220F3F
:1002D000331F441F551F24833583468357838281F0
:1002E000938101979383828324813581468157814D
:1002F000DA01C9010197A109B1098F5F9F4FAF4F83
:10030000BF4328F30BC0918333822282EA0CFB1C8B
:100310000C1D1D1DE482F5820683178383E0808314
:10032000248135814681578157FF1AC0C901AA2708
:1003300097FDA095BA2F81709070A070B0705695FF
:10034000479537952795822B932BA42BB52B848328
:100350009583A683B7838281938101969383828359
:10036000DF0101C0D201CD01CDB7DEB7E2E10C94CF
:10037000DE12A0E2B0E0EFEBF1E00C94CE12698364
:100380007A838B839C832D833E834F835887E9E058
:10039000EE2EF12CEC0EFD1ECE010196B7010E944F
:1003A000CA048E010F5E1F4FCE010596B8010E9450
:1003B000CA048A8991E089278A8BC701B801AE01F6
:1003C000475E5F4F0E946D000E94F503A096E6E035
:1003D0000C94EA12A0E2B0E0E0EFF1E00C94CE124F
:1003E00069837A838B839C832D833E834F835887D5
:1003F000F9E0EF2EF12CEC0EFD1ECE010196B701B7
:100400000E94CA048E010F5E1F4FCE010596B801EF
:100410000E94CA04C701B801AE01475E5F4F0E9447
:100420006D000E94F503A096E6E00C94EA12A0E2AB
:10043000B0E0EDE1F2E00C94C21269837A838B8321
:100440009C832D833E834F835887CE010196BE0146
:10045000675F7F4F0E94CA04CE010596BE016F5EA2
:100460007F4F0E94CA049985923088F08989823032
:10047000C8F0943019F4823051F404C0843029F467
:10048000923081F480E690E0C6C0923049F420E0DA
:100490009A858A89981321E02A87CE010996BBC0E4
:1004A000823049F420E09A858A89981321E02A8BCA
:1004B000CE014196B0C02D843E844F8458886D880B
:1004C0007E888F88988CEE24FF248701AA24BB2481
:1004D000650140E050E060E070E0E0E0F0E0C10184
:1004E00081709070892BE9F0E60CF71C081D191D2E
:1004F0009A01AB012A0D3B1D4C1D5D1D80E090E073
:10050000A0E0B0E0E614F7040805190520F481E046
:1005100090E0A0E0B0E0BA01A901480F591F6A1F9E
:100520007B1FAA0CBB1CCC1CDD1C97FE08C081E005
:1005300090E0A0E0B0E0A82AB92ACA2ADB2A3196C6
:10054000E032F10549F0660C771C881C991C569422
:10055000479437942794C3CFFA85EA892B893C893D
:100560008B859C85280F391F2E5F3F4F17C0CA010E
:1005700081709070892B61F016950795F794E79438
:1005800080E090E0A0E0B0E8E82AF92A0A2B1B2BD3
:1005900076956795579547952F5F3F4F77FDE7CF46
:1005A0000CC0440F551F661F771F17FD4160EE0CEE
:1005B000FF1C001F111F21503040403090E05907B0
:1005C00090E0690790E4790760F32B8F3C8FDB01A3
:1005D000CA018F779070A070B07080349105A1052A
:1005E000B10561F447FD0AC0E114F10401051105EC
:1005F00029F0405C5F4F6F4F7F4F40781A8EFE1797
:1006000011F081E08A8F4D8F5E8F6F8F78A383E02A
:10061000898FCE0149960E94F503A096E2E10C94E1
:10062000DE12A8E1B0E0E7E1F3E00C94CE126983BA
:100630007A838B839C832D833E834F83588789E005
:10064000E82EF12CEC0EFD1ECE010196B7010E94A2
:10065000CA048E010F5E1F4FCE010596B8010E949D
:10066000CA048985823040F08989823028F0C70128
:10067000B8010E94420501C08FEF6896E6E00C9435
:10068000EA12A8E1B0E0E7E4F3E00C94CE1269834B
:100690007A838B839C832D833E834F83588789E0A5
:1006A000E82EF12CEC0EFD1ECE010196B7010E9442
:1006B000CA048E010F5E1F4FCE010596B8010E943D
:1006C000CA048985823040F08989823028F0C701C8
:1006D000B8010E94420501C08FEF6896E6E00C94D5
:1006E000EA12A8E1B0E0E7E7F3E00C94CE126983E8
:1006F0007A838B839C832D833E834F83588789E045
:10070000E82EF12CEC0EFD1ECE010196B7010E94E1
:10071000CA048E010F5E1F4FCE010596B8010E94DC
:10072000CA048985823040F08989823028F0C70167
:10073000B8010E94420501C081E06896E6E00C9491
:10074000EA12ACE0B0E0E7EAF3E00C94D21269837D
:100750007A838B839C83CE010196BE016B5F7F4FB2
:100760000E94CA048D81823061F1823050F1843060
:1007700021F48E81882351F12EC02F81388537FDD9
:1007800020C06E812F3131051CF06623F9F023C0A3
:100790008EE190E0821B930B29853A854B855C8521
:1007A00004C056954795379527958A95D2F76623C5
:1007B000B1F050954095309521953F4F4F4F5F4F89
:1007C0000EC020E030E040E050E009C02FEF3FEFE6
:1007D0004FEF5FE704C020E030E040E050E8B901AF
:1007E000CA012C96E2E00C94EE12DF92EF92FF9297
:1007F0000F931F93FC01E480F58006811781D1805F
:100800008081823048F480E090E0A0E1B0E0E82A06
:10081000F92A0A2B1B2BA5C0843009F49FC0823013
:1008200021F4EE24FF24870105C0E114F104010541
:10083000110519F4E0E0F0E096C0628173819FEF4A
:10084000623879070CF05BC022E83FEF261B370BBC
:100850002A3131052CF020E030E040E050E02AC0A1
:10086000B801A701022E04C0769567955795479564
:100870000A94D2F781E090E0A0E0B0E004C0880FD5
:10088000991FAA1FBB1F2A95D2F70197A109B10989
:100890008E219F21A023B1230097A105B10521F04E
:1008A00081E090E0A0E0B0E09A01AB01282B392B69
:1008B0004A2B5B2BDA01C9018F779070A070B07062
:1008C00080349105A105B10539F427FF09C0205CEA
:1008D0003F4F4F4F5F4F04C0215C3F4F4F4F5F4F23
:1008E000E0E0F0E02030A0E03A07A0E04A07A0E412
:1008F0005A0710F0E1E0F0E079018A0127C0603882
:10090000710564F5FB01E158FF4FD801C7018F77EE
:100910009070A070B07080349105A105B10539F4D4
:10092000E7FE0DC080E490E0A0E0B0E004C08FE3FB
:1009300090E0A0E0B0E0E80EF91E0A1F1B1F17FFB1
:1009400005C016950795F794E794319687E01695BC
:100950000795F794E7948A95D1F705C0EE24FF2414
:100960008701EFEFF0E06E2F679566276795902F70
:100970009F77D794DD24D7948E2F8695492F462BC9
:10098000582F5D29B701CA011F910F91FF90EF9079
:10099000DF900895FC01DB01408151812281622FAB
:1009A0006F7770E0221F2227221F9381892F880FE3
:1009B000822B282F30E0991F9927991F11969C931D
:1009C000119721153105A9F54115510561057105ED
:1009D00011F482E037C082E89FEF13969C938E93C8
:1009E00012979A01AB0167E0220F331F441F551F76
:1009F0006A95D1F783E08C930DC0220F331F441FFB
:100A0000551F12968D919C911397019713969C9365
:100A10008E931297203080E0380780E0480780E40A
:100A2000580758F314962D933D934D935C93179765
:100A300008952F3F310579F4411551056105710580
:100A400019F484E08C93089564FF03C081E08C93D3
:100A500012C01C9210C02F57304013963C932E9317
:100A6000129783E08C9387E0440F551F661F771F12
:100A70008A95D1F7706414964D935D936D937C9332
:100A8000179708951F93DC01FB019C91923008F4A5
:100A900047C08081823008F443C0943051F41196ED
:100AA0001C91843099F58181682F70E0611B710978
:100AB0003FC0843021F0923031F48230B9F181812D
:100AC000882389F12DC011961C9111978230F1F085
:100AD00081811817D9F412962D913C911397828138
:100AE00093818217930794F028173907BCF0149666
:100AF0008D919D910D90BC91A02D248135814681D1
:100B00005781281739074A075B0718F4112341F06A
:100B10000AC082179307A407B50740F4112319F000
:100B200061E070E005C06FEF7FEF02C060E070E051
:100B3000CB011F910895DF93CF93CDB7DEB72D97EB
:100B40000FB6F894DEBF0FBECDBF89836A834B8397
:100B50008981282F30E03D872C878C859D858230C8
:100B6000910509F47DC02C853D852330310534F491
:100B70008C859D858130910571F0A0C12C853D85C6
:100B80002330310509F4D1C08C859D8584309105D1
:100B900009F430C193C18B81282F30E03B872A872D
:100BA0008A859B8582309105F9F02A853B85233023
:100BB000310579F18A859B858130910509F07EC1E7
:100BC000AAE3B0E0EAE3F0E08081482F8A81282F91
:100BD00030E081E090E0022E02C0880F991F0A9455
:100BE000E2F7842B8C936AC1AAE3B0E0EAE3F0E079
:100BF0008081482F8A81282F30E081E090E0022E0A
:100C000002C0880F991F0A94E2F7809584238C9381
:100C100055C1AAE3B0E0EAE3F0E08081482F8A8181
:100C2000282F30E081E090E002C0880F991F2A95BC
:100C3000E2F7809584238C93ABE3B0E0EBE3F0E044
:100C40008081482F8A81282F30E081E090E0022EB9
:100C500002C0880F991F0A94E2F7842B8C932EC14F
:100C60008B81282F30E039872887888599858230C5
:100C70009105F9F0288539852330310579F188858A
:100C800099858130910509F019C1A7E3B0E0E7E348
:100C9000F0E08081482F8A81282F30E081E090E0C9
:100CA000022E02C0880F991F0A94E2F7842B8C93BE
:100CB00005C1A7E3B0E0E7E3F0E08081482F8A8137
:100CC000282F30E081E090E0022E02C0880F991FAB
:100CD0000A94E2F7809584238C93F0C0A7E3B0E0F8
:100CE000E7E3F0E08081482F8A81282F30E081E01F
:100CF00090E002C0880F991F2A95E2F7809584231F
:100D00008C93A8E3B0E0E8E3F0E08081482F8A818B
:100D1000282F30E081E090E0022E02C0880F991F5A
:100D20000A94E2F7842B8C93C9C08B81282F30E082
:100D30003F832E838E819F8182309105F9F02E8131
:100D40003F812330310579F18E819F81813091057A
:100D500009F0B4C0A4E3B0E0E4E3F0E08081482F00
:100D60008A81282F30E081E090E0022E02C0880FB7
:100D7000991F0A94E2F7842B8C93A0C0A4E3B0E0FF
:100D8000E4E3F0E08081482F8A81282F30E081E081
:100D900090E0022E02C0880F991F0A94E2F7809516
:100DA00084238C938BC0A4E3B0E0E4E3F0E0808183
:100DB000482F8A81282F30E081E090E002C0880F20
:100DC000991F2A95E2F7809584238C93A5E3B0E0E0
:100DD000E5E3F0E08081482F8A81282F30E081E030
:100DE00090E0022E02C0880F991F0A94E2F7842B2C
:100DF0008C9364C08B81282F30E03D832C838C81C1
:100E00009D8182309105F9F02C813D81233031059F
:100E100079F18C819D818130910509F04FC0A1E36A
:100E2000B0E0E1E3F0E08081482F8A81282F30E0B4
:100E300081E090E0022E02C0880F991F0A94E2F729
:100E4000842B8C933BC0A1E3B0E0E1E3F0E0808130
:100E5000482F8A81282F30E081E090E0022E02C0E6
:100E6000880F991F0A94E2F7809584238C9326C0FB
:100E7000A1E3B0E0E1E3F0E08081482F8A81282FF0
:100E800030E081E090E002C0880F991F2A95E2F7D8
:100E9000809584238C93A2E3B0E0E2E3F0E08081CC
:100EA000482F8A81282F30E081E090E0022E02C096
:100EB000880F991F0A94E2F7842B8C932D960FB616
:100EC000F894DEBF0FBECDBFCF91DF910895DF93C1
:100ED000CF9300D000D0CDB7DEB789836A838981F4
:100EE000282F30E03C832B838B819C8182309105BD
:100EF000D9F02B813C812330310534F48B819C81E6
:100F00008130910561F01EC02B813C812330310579
:100F100081F08B819C818430910581F013C0EAE3DC
:100F2000F0E08A8180830EC0E7E3F0E08A8180836D
:100F300009C0E4E3F0E08A81808304C0E1E3F0E0EB
:100F40008A8180830F900F900F900F90CF91DF9147
:100F50000895DF93CF9300D000D00F92CDB7DEB7C6
:100F600089836A834B838981282F30E03D832C83DA
:100F70008C819D818230910509F444C02C813D8192
:100F80002330310534F48C819D818130910571F0DD
:100F9000BCC02C813D812330310509F45FC08C81B8
:100FA0009D818430910509F485C0AFC08B81882371
:100FB000A1F0ABE3B0E0EBE3F0E08081482F8A8161
:100FC000282F30E081E090E0022E02C0880F991FA8
:100FD0000A94E2F7842B8C9398C0ABE3B0E0EBE388
:100FE000F0E08081482F8A81282F30E081E090E076
:100FF000022E02C0880F991F0A94E2F7809584237D
:101000008C9383C08B818823A1F0A8E3B0E0E8E350
:10101000F0E08081482F8A81282F30E081E090E045
:10102000022E02C0880F991F0A94E2F7842B8C933A
:101030006CC0A8E3B0E0E8E3F0E08081482F8A814B
:10104000282F30E081E090E0022E02C0880F991F27
:101050000A94E2F7809584238C9357C08B81882370
:10106000A1F0A5E3B0E0E5E3F0E08081482F8A81BC
:10107000282F30E081E090E0022E02C0880F991FF7
:101080000A94E2F7842B8C9340C0A5E3B0E0E5E33B
:10109000F0E08081482F8A81282F30E081E090E0C5
:1010A000022E02C0880F991F0A94E2F780958423CC
:1010B0008C932BC08B818823A1F0A2E3B0E0E2E304
:1010C000F0E08081482F8A81282F30E081E090E095
:1010D000022E02C0880F991F0A94E2F7842B8C938A
:1010E00014C0A2E3B0E0E2E3F0E08081482F8A81FF
:1010F000282F30E081E090E0022E02C0880F991F77
:101100000A94E2F7809584238C930F900F900F90B0
:101110000F900F90CF91DF910895DF93CF9300D080
:1011200000D0CDB7DEB789836A838981282F30E06C
:101130003C832B838B819C8182309105D9F02B815C
:101140003C812330310534F48B819C8181309105C1
:1011500061F01EC02B813C812330310581F08B81F1
:101160009C818430910581F013C0EBE3F0E08A812B
:1011700080830EC0E8E3F0E08A81808309C0E5E364
:10118000F0E08A81808304C0E2E3F0E08A8180831A
:101190000F900F900F900F90CF91DF910895DF93F4
:1011A000CF9300D000D00F92CDB7DEB78A836B8388
:1011B0008A81282F30E03D832C834C815D81423031
:1011C000510541F18C819D818330910534F42C814E
:1011D0003D812130310561F053C04C815D81433048
:1011E000510551F18C819D8184309105B9F148C040
:1011F000E9E3F0E08081282F30E08B81882F90E0B8
:10120000A90102C0559547958A95E2F7CA018170F8
:10121000898338C0E6E3F0E08081282F30E08B81BD
:10122000882F90E0A90102C0559547958A95E2F76D
:10123000CA018170898326C0E3E3F0E08081282F12
:1012400030E08B81882F90E0A90102C05595479529
:101250008A95E2F7CA018170898314C0E0E3F0E067
:101260008081282F30E08B81882F90E0A90102C077
:10127000559547958A95E2F7CA018170898302C026
:101280008FEF898389810F900F900F900F900F90AF
:10129000CF91DF910895DF93CF9300D000D0CDB7E9
:1012A000DEB78A838A81282F30E03C832B838B81B1
:1012B0009C8182309105D9F02B813C81233031050E
:1012C00034F48B819C818130910561F01FC02B81AA
:1012D0003C812330310581F08B819C8184309105E4
:1012E00081F014C0E9E3F0E08081898311C0E6E376
:1012F000F0E0808189830CC0E3E3F0E080818983A2
:1013000007C0E0E3F0E08081898302C08FEF89832A
:1013100089810F900F900F900F90CF91DF910895DA
:10132000DF93CF93CDB7DEB781E06FE00E94670710
:1013300081E060EF0E948D08CF91DF910895DF93E7
:10134000CF9300D000D0CDB7DEB71A8243C081E082
:1013500060E041E00E94A90781E061E041E00E9475
:10136000A90781E062E041E00E94A90781E063E013
:1013700041E00E94A90781E06A8140E00E94A9073C
:1013800084E0898321C081E069810E94CF088B833A
:101390008B818823B1F48981882F90E0AC0144507F
:1013A00050408A81282F30E0CA01880F991F880F8A
:1013B000991F820F931FFC01E859FF4F80818C8396
:1013C0000EC089818F5F898389818830E0F28A81AC
:1013D0008F5F8A838A81843008F4B9CF1C828C8124
:1013E0000F900F900F900F90CF91DF910895DF93A2
:1013F000CF93CDB7DEB72E970FB6F894DEBF0FBEF2
:10140000CDBFCE0102969B878A87E3E8F0E0FD8797
:10141000EC87F8E0FE87EC85FD8500808C859D8556
:1014200001969D878C87EA85FB8500828A859B854E
:1014300001969B878A879E8591509E87EE85EE2335
:1014400051F780E40E948C0F19820EC08981282FE9
:1014500030E0CE010296FC01E20FF31F80810E9472
:101460002A1089818F5F89838981883078F380E8A9
:101470000E948C0F2E960FB6F894DEBF0FBECDBF24
:10148000CF91DF910895DF93CF9300D00F92CDB726
:10149000DEB79B838A8319820EC08981282F30E0B2
:1014A0008A819B81FC01E20FF31F80810E942A1038
:1014B00089818F5F89838981282F30E08A819B8190
:1014C000FC01E20FF31F8081882339F70F900F9002
:1014D0000F90CF91DF910895DF93CF93CDB7DEB713
:1014E00080917800813021F481E00E948C0F06C049
:1014F00081E00E948C0F80E10E948C0FCF91DF91E0
:101500000895DF93CF930F92CDB7DEB7898389819A
:1015100060E00E948F0A0F90CF91DF910895DF93D2
:10152000CF9300D00F92CDB7DEB78A836B838A81C9
:10153000882F90E000249695879507949695879537
:101540000794982F802D8068982F8B81890F89832D
:1015500080917800813021F489810E948C0F08C02D
:1015600089810E948C0F89818295807F0E948C0FD7
:101570000F900F900F90CF91DF910895DF93CF934D
:101580000F92CDB7DEB7898380917800813071F4F6
:101590008981813021F488E10E948C0F1AC08981F1
:1015A0008230B9F48CE10E948C0F13C089818130A4
:1015B00039F488E10E948C0F80E80E948C0F09C0EA
:1015C0008981823031F48CE10E948C0F80EC0E9482
:1015D0008C0F0F90CF91DF910895DF93CF9300D0C0
:1015E00000D000D0CDB7DEB78D836E8380917800B8
:1015F000813001F58D81813069F41C8206C080E163
:101600000E948C0F8C818F5F8C839C818E819817B8
:10161000B0F335C08D81823091F51B8206C084E124
:101620000E948C0F8B818F5F8B839B818E8198179B
:10163000B0F325C08D81813081F41A8209C080E128
:101640000E948C0F80E00E948C0F8A818F5F8A83BA
:101650009A818E81981798F312C08D81823079F427
:10166000198209C084E10E948C0F80E40E948C0FD3
:1016700089818F5F898399818E81981798F3269647
:101680000FB6F894DEBF0FBECDBFCF91DF910895A6
:101690000F931F93DF93CF93CDB7DEB7C356D040E0
:1016A0000FB6F894DEBF0FBECDBFFE01ED59FF4F60
:1016B0008083FE01ED59FF4F8081809378008091F7
:1016C00078008130A1F481E060E041E00E949B0558
:1016D00081E061E041E00E949B0581E062E041E041
:1016E0000E949B0581E063E041E00E949B0581E050
:1016F00064E041E00E949B0581E065E041E00E94DA
:101700009B0581E066E041E00E949B0581E067E087
:1017100041E00E949B0584E061E041E00E949B055E
:1017200084E060E041E00E949B0584E062E041E0EB
:101730000E949B0584E062E040E00E94A907FE0150
:10174000E15AFF4F80E090E0A8E4B2E48083918307
:10175000A283B3838E01055A1F4FFE01E15AFF4F4A
:10176000608171818281938120E030E04AEF54E40E
:101770000E941702DC01CB01F80180839183A283D0
:10178000B383FE01E55AFF4F6081718182819381AD
:1017900020E030E040E85FE30E947103882344F4D6
:1017A000FE01E75AFF4F81E090E09183808364C09F
:1017B000FE01E55AFF4F608171818281938120E0B3
:1017C0003FEF4FE757E40E94110318160CF043C097
:1017D000FE01E15AFF4F608171818281938120E097
:1017E00030E040E251E40E941702DC01CB018E019F
:1017F000075A1F4FBC01CD010E944100DC01CB0103
:10180000F801918380831FC0FE01E95AFF4F88ECE5
:1018100090E091838083FE01E95AFF4F808191819E
:101820000197F1F7FE01E95AFF4F91838083DE01B2
:10183000A75ABF4FFE01E75AFF4F80819181019760
:1018400011969C938E93FE01E75AFF4F8081918100
:101850000097D1F628C08E01075A1F4FFE01E55AA6
:10186000FF4F60817181828193810E944100DC0180
:10187000CB01F80191838083DE01AB5ABF4FFE019B
:10188000E75AFF4F8081918111969C938E93FE01C0
:10189000EB5AFF4F808191810197F1F7FE01EB5ADE
:1018A000FF4F9183808380917800813009F0B7C128
:1018B00088E30E948C0FFE01EF5AFF4F80E090E01A
:1018C000A0E8BFE380839183A283B3838E01035B8F
:1018D0001F4FFE01EF5AFF4F60817181828193811A
:1018E00020E030E04AEF54E40E941702DC01CB0113
:1018F000F80180839183A283B383FE01E35BFF4FF2
:10190000608171818281938120E030E040E85FE373
:101910000E947103882344F4FE01E55BFF4F81E0E0
:1019200090E09183808364C0FE01E35BFF4F6081A0
:1019300071818281938120E03FEF4FE757E40E945D
:10194000110318160CF043C0FE01EF5AFF4F6081DF
:1019500071818281938120E030E040E251E40E9475
:101960001702DC01CB018E01055B1F4FBC01CD01CD
:101970000E944100DC01CB01F801918380831FC0EC
:10198000FE01E75BFF4F88EC90E091838083FE01CE
:10199000E75BFF4F808191810197F1F7FE01E75BE3
:1019A000FF4F91838083DE01A55BBF4FFE01E55BA6
:1019B000FF4F80819181019711969C938E93FE0138
:1019C000E55BFF4F808191810097D1F627C08E01A2
:1019D000055B1F4FFE01E35BFF4F608171818281D8
:1019E00093810E944100DC01CB01F8019183808347
:1019F000DE01A95BBF4FFE01E55BFF4F8081918156
:101A00008D939C93FE01E95BFF4F8081918101974B
:101A1000F1F7FE01E95BFF4F918380838FE00E9425
:101A20008C0FFE01ED5BFF4F80E090E0A0E8BFE38C
:101A300080839183A283B3838E01015C1F4FFE01DB
:101A4000ED5BFF4F608171818281938120E030E006
:101A50004AEF54E40E941702DC01CB01F8018083B5
:101A60009183A283B383FE01FF966081718182819D
:101A7000938120E030E040E85FE30E947103882317
:101A80002CF481E090E09EAF8DAF46C0FE01FF9642
:101A9000608171818281938120E03FEF4FE757E4BD
:101AA0000E941103181664F5FE01ED5BFF4F608183
:101AB00071818281938120E030E040E251E40E9414
:101AC0001702DC01CB01BC01CD010E944100DC0109
:101AD000CB019EAF8DAF0FC088EC90E09CAF8BAF79
:101AE0008BAD9CAD0197F1F79CAF8BAF8DAD9EADEB
:101AF00001979EAF8DAF8DAD9EAD009769F716C073
:101B0000FE01FF9660817181828193810E94410074
:101B1000DC01CB019EAF8DAF8DAD9EAD9AAF89AF8D
:101B200089AD9AAD0197F1F79AAF89AF81E00E9434
:101B30008C0F80E090E0A0E0B0E48DAB9EABAFAB4B
:101B4000B8AF6DA97EA98FA998AD20E030E04AEF2B
:101B500054E40E941702DC01CB0189AB9AABABAB1A
:101B6000BCAB69A97AA98BA99CA920E030E040E828
:101B70005FE30E94710388232CF481E090E098AB2E
:101B80008FA73FC069A97AA98BA99CA920E03FEF44
:101B90004FE757E40E94110318164CF56DA97EA972
:101BA0008FA998AD20E030E040E251E40E94170296
:101BB000DC01CB01BC01CD010E944100DC01CB0165
:101BC00098AB8FA70FC088EC90E09EA78DA78DA53E
:101BD0009EA50197F1F79EA78DA78FA598A90197BC
:101BE00098AB8FA78FA598A9009769F714C069A92A
:101BF0007AA98BA99CA90E944100DC01CB0198AB7A
:101C00008FA78FA598A99CA78BA78BA59CA50197AB
:101C1000F1F79CA78BA786E00E948C0F71C188E228
:101C20000E948C0F88E20E948C0F80E80E948C0F2B
:101C300080E090E0A0E8BFE38FA398A7A9A7BAA788
:101C40006FA178A589A59AA520E030E04AEF54E479
:101C50000E941702DC01CB018BA39CA3ADA3BEA302
:101C60006BA17CA18DA19EA120E030E040E85FE364
:101C70000E94710388232CF481E090E09AA389A349
:101C80003FC06BA17CA18DA19EA120E03FEF4FE75B
:101C900057E40E94110318164CF56FA178A589A589
:101CA0009AA520E030E040E251E40E941702DC01F6
:101CB000CB01BC01CD010E944100DC01CB019AA304
:101CC00089A30FC088EC90E098A38F8F8F8D98A187
:101CD0000197F1F798A38F8F89A19AA101979AA3F1
:101CE00089A389A19AA1009769F714C06BA17CA16F
:101CF0008DA19EA10E944100DC01CB019AA389A382
:101D000089A19AA19E8F8D8F8D8D9E8D0197F1F760
:101D10009E8F8D8F8FE00E948C0F80EF0E948C0F22
:101D200080E090E0A0E8BFE3898F9A8FAB8FBC8FF3
:101D3000698D7A8D8B8D9C8D20E030E04AEF54E4E4
:101D40000E941702DC01CB018D8B9E8BAF8BB88F6D
:101D50006D897E898F89988D20E030E040E85FE3CF
:101D60000E94710388232CF481E090E09C8B8B8B84
:101D70003FC06D897E898F89988D20E03FEF4FE7C6
:101D800057E40E94110318164CF5698D7A8D8B8DDE
:101D90009C8D20E030E040E251E40E941702DC011B
:101DA000CB01BC01CD010E944100DC01CB019C8B29
:101DB0008B8B0FC088EC90E09A8B898B89899A89EC
:101DC0000197F1F79A8B898B8B899C8901979C8B62
:101DD0008B8B8B899C89009769F714C06D897E89EC
:101DE0008F89988D0E944100DC01CB019C8B8B8BED
:101DF0008B899C89988B8F878F8598890197F1F7BC
:101E0000988B8F8781E00E948C0F80E10E948C0F5D
:101E100080E090E0A0E0B0E48B879C87AD87BE8730
:101E20006B857C858D859E8520E030E04AEF54E40B
:101E30000E941702DC01CB018F839887A987BA879C
:101E40006F81788589859A8520E030E040E85FE3FE
:101E50000E94710388232CF481E090E09E838D839F
:101E60003FC06F81788589859A8520E03FEF4FE7F5
:101E700057E40E94110318164CF56B857C858D85FF
:101E80009E8520E030E040E251E40E941702DC0130
:101E9000CB01BC01CD010E944100DC01CB019E833E
:101EA0008D830FC088EC90E09C838B838B819C8119
:101EB0000197F1F79C838B838D819E8101979E838F
:101EC0008D838D819E81009769F714C06F8178851D
:101ED00089859A850E944100DC01CB019E838D8318
:101EE0008D819E819A83898389819A810197F1F7F7
:101EF0009A83898386E00E948C0F80E60E948C0F73
:101F0000CD59DF4F0FB6F894DEBF0FBECDBFCF91D6
:101F1000DF911F910F910895DF93CF93CDB7DEB777
:101F20002F970FB6F894DEBF0FBECDBF8F8784E02A
:101F300060E040E00E94A90784E061E040E00E9488
:101F4000A90781E06F850E948D0884E062E041E08E
:101F50000E94A90780E090E0A0E0B0E48B879C8716
:101F6000AD87BE876B857C858D859E8520E030E0C2
:101F70004AEF54E40E941702DC01CB018F8398875B
:101F8000A987BA876F81788589859A8520E030E0B6
:101F900040E85FE30E94710388232CF481E090E025
:101FA0009E838D833FC06F81788589859A8520E0E7
:101FB0003FEF4FE757E40E94110318164CF56B856D
:101FC0007C858D859E8520E030E040E251E40E94D2
:101FD0001702DC01CB01BC01CD010E944100DC01F4
:101FE000CB019E838D830FC088EC90E09C838B8314
:101FF0008B819C810197F1F79C838B838D819E81DE
:1020000001979E838D838D819E81009769F714C00F
:102010006F81788589859A850E944100DC01CB011A
:102020009E838D838D819E819A83898389819A8104
:102030000197F1F79A83898384E062E040E00E948F
:10204000A9072F960FB6F894DEBF0FBECDBFCF9174
:10205000DF910895DF93CF93CDB7DEB7AB970FB67F
:10206000F894DEBF0FBECDBF8BA784E060E041E0F7
:102070000E94A90784E061E040E00E94A9078091E6
:102080007800813009F081C081E06BA50E948D0845
:1020900084E062E041E00E94A90780E090E0A0E0D7
:1020A000B0E48FA398A7A9A7BAA76FA178A589A51F
:1020B0009AA520E030E04AEF54E40E941702DC01C8
:1020C000CB018BA39CA3ADA3BEA36BA17CA18DA1CF
:1020D0009EA120E030E040E85FE30E947103882386
:1020E0002CF481E090E09AA389A33FC06BA17CA16E
:1020F0008DA19EA120E03FEF4FE757E40E9411031E
:1021000018164CF56FA178A589A59AA520E030E0B6
:1021100040E251E40E941702DC01CB01BC01CD0179
:102120000E944100DC01CB019AA389A30FC088EC77
:1021300090E098A38F8F8F8D98A10197F1F798A3C6
:102140008F8F89A19AA101979AA389A389A19AA1A6
:10215000009769F714C06BA17CA18DA19EA10E947C
:102160004100DC01CB019AA389A389A19AA19E8F8A
:102170008D8F8D8D9E8D0197F1F79E8F8D8F84E0D1
:1021800062E040E00E94A9070DC18BA5982F907FC7
:1021900081E0692F0E948D0884E062E041E00E94A6
:1021A000A90780E090E0A0E0B0E4898F9A8FAB8F20
:1021B000BC8F698D7A8D8B8D9C8D20E030E04AEF4D
:1021C00054E40E941702DC01CB018D8B9E8BAF8BF8
:1021D000B88F6D897E898F89988D20E030E040E846
:1021E0005FE30E94710388232CF481E090E09C8BD4
:1021F0008B8B3FC06D897E898F89988D20E03FEF62
:102200004FE757E40E94110318164CF5698D7A8D3B
:102210008B8D9C8D20E030E040E251E40E9417025B
:10222000DC01CB01BC01CD010E944100DC01CB01EE
:102230009C8B8B8B0FC088EC90E09A8B898B898963
:102240009A890197F1F79A8B898B8B899C890197E1
:102250009C8B8B8B8B899C89009769F714C06D8947
:102260007E898F89988D0E944100DC01CB019C8B77
:102270008B8B8B899C89988B8F878F859889019709
:10228000F1F7988B8F8784E062E040E00E94A90715
:102290008BA5882F90E082959295907F9827807FDC
:1022A0009827982F81E0692F0E948D0884E062E0D2
:1022B00041E00E94A90780E090E0A0E0B0E48B87B5
:1022C0009C87AD87BE876B857C858D859E8520E04C
:1022D00030E04AEF54E40E941702DC01CB018F8307
:1022E0009887A987BA876F81788589859A8520E044
:1022F00030E040E85FE30E94710388232CF481E022
:1023000090E09E838D833FC06F81788589859A8513
:1023100020E03FEF4FE757E40E94110318164CF5F9
:102320006B857C858D859E8520E030E040E251E420
:102330000E941702DC01CB01BC01CD010E944100CB
:10234000DC01CB019E838D830FC088EC90E09C83E1
:102350008B838B819C810197F1F79C838B838D818B
:102360009E8101979E838D838D819E81009769F761
:1023700014C06F81788589859A850E944100DC01AF
:10238000CB019E838D838D819E819A8389838981F0
:102390009A810197F1F79A83898384E062E040E0B3
:1023A0000E94A907AB960FB6F894DEBF0FBECDBF53
:1023B000CF91DF910895DF93CF9300D000D0CDB7B8
:1023C000DEB79A8389837C836B8389819B81692FA4
:1023D00041E00E949B050F900F900F900F90CF91BE
:1023E000DF910895DF93CF9300D000D0CDB7DEB753
:1023F0009A8389837C836B8389819B81692F41E0E8
:102400000E94A9070F900F900F900F90CF91DF912E
:102410000895DF93CF9300D000D0CDB7DEB79A8375
:1024200089837C836B8389819B81692F40E00E9433
:10243000A9070F900F900F900F90CF91DF91089503
:10244000DF93CF9300D0CDB7DEB789836A838981CC
:102450006A8141E00E949B0589816A8141E00E9476
:10246000A9070F900F90CF91DF910895DF93CF933D
:1024700000D0CDB7DEB789836A8389816A8141E064
:102480000E949B0589816A8140E00E94A9070F9004
:102490000F90CF91DF910895DF93CF93CDB7DEB743
:1024A00083E061E00E948D08CF91DF910895DF9372
:1024B000CF93CDB7DEB783E06FEF0E946707CF9170
:1024C000DF910895DF93CF930F92CDB7DEB7898365
:1024D0008981882F90E0FC01E758FF4F908183E0CD
:1024E000692F0E948D080F90CF91DF910895DF939F
:1024F000CF9300D0CDB7DEB782E060E043E00E942A
:102500009B0582E061E043E00E949B0582E062E07F
:1025100043E00E949B0582E063E043E00E949B054C
:1025200082E064E043E00E949B0582E065E043E0D6
:102530000E949B0582E066E043E00E949B0582E0EA
:1025400067E043E00E949B050E94571282E060E032
:102550000E94CF088A8382E061E00E94CF088983CD
:102560008A81882321F480E00E946212EFCF898162
:10257000882321F481E00E946212E8CF86E00E9465
:102580006212E4CF2F923F924F925F926F927F92AE
:102590008F929F92AF92BF92CF92DF92EF92FF9273
:1025A0000F931F93CF93DF93CDB7DEB7CA1BDB0B1F
:1025B0000FB6F894DEBF0FBECDBF09942A883988C4
:1025C00048885F846E847D848C849B84AA84B984CB
:1025D000C884DF80EE80FD800C811B81AA81B981D7
:1025E000CE0FD11D0FB6F894DEBF0FBECDBFED01EB
:0625F0000895F894FFCFEE
:1025F600000000000000000031323341343536421D
:102606003738394323302A440140792430191202DD
:0C2616007800100A1F15110A0A040000C9
:00000001FF
