:100000000C942A000C9434000C9434000C943400AA
:100010000C9434000C9434000C9434000C94340090
:100020000C9434000C9434000C9434000C94340080
:100030000C9434000C9434000C9434000C94340070
:100040000C9434000C9434000C9434000C94340060
:100050000C94340011241FBECFE5D8E0DEBFCDBF25
:100060000E942D030C9450030C940000DF93CF9357
:10007000CDB7DEB72D970FB6F894DEBF0FBECDBF5C
:1000800089836A834B838981282F30E03D872C87C1
:100090008C859D858230910509F47DC02C853D8538
:1000A0002330310534F48C859D858130910571F0C4
:1000B000A0C12C853D852330310509F4D1C08C8544
:1000C0009D858430910509F430C193C18B81282F1F
:1000D00030E03B872A878A859B8582309105F9F03D
:1000E0002A853B852330310579F18A859B858130CE
:1000F000910509F07EC1AAE3B0E0EAE3F0E0808177
:10010000482F8A81282F30E081E090E0022E02C043
:10011000880F991F0A94E2F7842B8C936AC1AAE393
:10012000B0E0EAE3F0E08081482F8A81282F30E0B8
:1001300081E090E0022E02C0880F991F0A94E2F736
:10014000809584238C9355C1AAE3B0E0EAE3F0E004
:100150008081482F8A81282F30E081E090E002C022
:10016000880F991F2A95E2F7809584238C93ABE33F
:10017000B0E0EBE3F0E08081482F8A81282F30E067
:1001800081E090E0022E02C0880F991F0A94E2F7E6
:10019000842B8C932EC18B81282F30E039872887C0
:1001A0008885998582309105F9F028853985233035
:1001B000310579F1888599858130910509F019C15A
:1001C000A7E3B0E0E7E3F0E08081482F8A81282FA1
:1001D00030E081E090E0022E02C0880F991F0A945F
:1001E000E2F7842B8C9305C1A7E3B0E0E7E3F0E0EE
:1001F0008081482F8A81282F30E081E090E0022E14
:1002000002C0880F991F0A94E2F7809584238C938B
:10021000F0C0A7E3B0E0E7E3F0E08081482F8A81F7
:10022000282F30E081E090E002C0880F991F2A95C6
:10023000E2F7809584238C93A8E3B0E0E8E3F0E054
:100240008081482F8A81282F30E081E090E0022EC3
:1002500002C0880F991F0A94E2F7842B8C93C9C0BF
:100260008B81282F30E03F832E838E819F818230C7
:100270009105F9F02E813F812330310579F18E818E
:100280009F818130910509F0B4C0A4E3B0E0E4E3BC
:10029000F0E08081482F8A81282F30E081E090E0D3
:1002A000022E02C0880F991F0A94E2F7842B8C93C8
:1002B000A0C0A4E3B0E0E4E3F0E08081482F8A81AD
:1002C000282F30E081E090E0022E02C0880F991FB5
:1002D0000A94E2F7809584238C938BC0A4E3B0E06A
:1002E000E4E3F0E08081482F8A81282F30E081E02C
:1002F00090E002C0880F991F2A95E2F78095842329
:100300008C93A5E3B0E0E5E3F0E08081482F8A819B
:10031000282F30E081E090E0022E02C0880F991F64
:100320000A94E2F7842B8C9364C08B81282F30E0F1
:100330003D832C838C819D8182309105F9F02C8145
:100340003D812330310579F18C819D81813091058A
:1003500009F04FC0A1E3B0E0E1E3F0E08081482F75
:100360008A81282F30E081E090E0022E02C0880FC1
:10037000991F0A94E2F7842B8C933BC0A1E3B0E071
:10038000E1E3F0E08081482F8A81282F30E081E08E
:1003900090E0022E02C0880F991F0A94E2F7809520
:1003A00084238C9326C0A1E3B0E0E1E3F0E08081F8
:1003B000482F8A81282F30E081E090E002C0880F2A
:1003C000991F2A95E2F7809584238C93A2E3B0E0ED
:1003D000E2E3F0E08081482F8A81282F30E081E03D
:1003E00090E0022E02C0880F991F0A94E2F7842B36
:1003F0008C932D960FB6F894DEBF0FBECDBFCF9174
:10040000DF910895DF93CF9300D000D00F92CDB746
:10041000DEB789836A834B838981282F30E03D834F
:100420002C838C819D818230910509F444C02C81FC
:100430003D812330310534F48C819D8181309105DB
:1004400071F0BCC02C813D812330310509F45FC0BF
:100450008C819D818430910509F485C0AFC08B816A
:100460008823A1F0ABE3B0E0EBE3F0E08081482F1C
:100470008A81282F30E081E090E0022E02C0880FB0
:10048000991F0A94E2F7842B8C9398C0ABE3B0E0F9
:10049000EBE3F0E08081482F8A81282F30E081E073
:1004A00090E0022E02C0880F991F0A94E2F780950F
:1004B00084238C9383C08B818823A1F0A8E3B0E0D0
:1004C000E8E3F0E08081482F8A81282F30E081E046
:1004D00090E0022E02C0880F991F0A94E2F7842B45
:1004E0008C936CC0A8E3B0E0E8E3F0E08081482F93
:1004F0008A81282F30E081E090E0022E02C0880F30
:10050000991F0A94E2F7809584238C9357C08B81BE
:100510008823A1F0A5E3B0E0E5E3F0E08081482F77
:100520008A81282F30E081E090E0022E02C0880FFF
:10053000991F0A94E2F7842B8C9340C0A5E3B0E0A6
:10054000E5E3F0E08081482F8A81282F30E081E0C8
:1005500090E0022E02C0880F991F0A94E2F780955E
:1005600084238C932BC08B818823A1F0A2E3B0E07D
:10057000E2E3F0E08081482F8A81282F30E081E09B
:1005800090E0022E02C0880F991F0A94E2F7842B94
:100590008C9314C0A2E3B0E0E2E3F0E08081482F46
:1005A0008A81282F30E081E090E0022E02C0880F7F
:1005B000991F0A94E2F7809584238C930F900F90F3
:1005C0000F900F900F90CF91DF910895DF93CF930D
:1005D00000D000D00F92CDB7DEB789836A838981BE
:1005E000282F30E03D832C838C819D8182309105C2
:1005F000D9F02C813D812330310534F48C819D81EB
:100600008130910561F01FC02C813D81233031057F
:1006100081F08C819D818430910581F014C0E9E3E3
:10062000F0E090819B8310C0E6E3F0E020812B8313
:100630000BC0E3E3F0E030813B8306C0E0E3F0E091
:1006400080818B8301C01B828B810F900F900F9054
:100650000F900F90CF91DF910895DF93CF930F927A
:10066000CDB7DEB781E060E043E00E94360081E074
:1006700061E041E00E94360081E061E00E94E60214
:1006800089838981882331F481E061E041E00E941F
:100690000202F2CF81E061E040E00E940202ECCF72
:0406A000F894FFCFFC
:00000001FF
